:020000040000fa
:080000000002040000000000f2
:020000040000fa
:04000800b803000039
:020000040000fa
:04000c00b803000035
:020000040000fa
:04001000b803000031
:020000040000fa
:04001400b80300002d
:020000040000fa
:04001800b803000029
:020000040000fa
:04001c00b803000025
:020000040000fa
:04002000b803000021
:020000040000fa
:04002400b80300001d
:020000040000fa
:04002800b803000019
:020000040000fa
:04002c00b803000015
:020000040000fa
:04003000b803000011
:020000040000fa
:040034001a030000ab
:020000040000fa
:04003800b803000009
:020000040000fa
:04003c00b803000005
:020000040000fa
:04004000b803000001
:020000040000fa
:04004400b8030000fd
:020000040000fa
:04004800b8030000f9
:020000040000fa
:04004c00b8030000f5
:020000040000fa
:04005000b8030000f1
:020000040000fa
:04005400b8030000ed
:020000040000fa
:04005800b8030000e9
:020000040000fa
:04005c00b8030000e5
:020000040000fa
:04006000b8030000e1
:020000040000fa
:04006400b8030000dd
:020000040000fa
:04006800b8030000d9
:020000040000fa
:04006c00b8030000d5
:020000040000fa
:04007000b8030000d1
:020000040000fa
:04007400b8030000cd
:020000040000fa
:04007800b8030000c9
:020000040000fa
:04007c00b8030000c5
:020000040000fa
:04008000b8030000c1
:020000040000fa
:04008400b8030000bd
:020000040000fa
:04008800b8030000b9
:020000040000fa
:04008c00b8030000b5
:020000040000fa
:04009000b8030000b1
:020000040000fa
:04009400b8030000ad
:020000040000fa
:04009800b8030000a9
:020000040000fa
:04009c00b8030000a5
:020000040000fa
:0400a000b8030000a1
:020000040000fa
:0400a400b80300009d
:020000040000fa
:0400a800b803000099
:020000040000fa
:0400ac00b803000095
:020000040000fa
:0400b000b803000091
:020000040000fa
:0400b400b80300008d
:020000040000fa
:0400b800b803000089
:020000040000fa
:0400bc00b803000085
:020000040000fa
:0400c000b803000081
:020000040000fa
:0400c400b80300007d
:020000040000fa
:0400c800b803000079
:020000040000fa
:0400cc00b803000075
:020000040000fa
:0400d000b803000071
:020000040000fa
:0400d400b80300006d
:020000040000fa
:0400d800b803000069
:020000040000fa
:0400dc00b803000065
:020000040000fa
:0400e000b803000061
:020000040000fa
:0400e400b80300005d
:020000040000fa
:0400e800b803000059
:020000040000fa
:0400ec00b803000055
:020000040000fa
:0400f000b803000051
:020000040000fa
:0400f400b80300004d
:020000040000fa
:0400f800b803000049
:020000040000fa
:0400fc00b803000045
:020000040000fa
:04010000b803000040
:020000040000fa
:04010400b80300003c
:020000040000fa
:04010800b803000038
:020000040000fa
:04010c00b803000034
:020000040000fa
:04011000b803000030
:020000040000fa
:04011400b80300002c
:020000040000fa
:04011800b803000028
:020000040000fa
:04011c00b803000024
:020000040000fa
:04012000b803000020
:020000040000fa
:04012400b80300001c
:020000040000fa
:04012800b803000018
:020000040000fa
:04012c00b803000014
:020000040000fa
:04013000b803000010
:020000040000fa
:04013400b80300000c
:020000040000fa
:04013800b803000008
:020000040000fa
:04013c00b803000004
:020000040000fa
:04014000b803000000
:020000040000fa
:04014400b8030000fc
:020000040000fa
:04014800b8030000f8
:020000040000fa
:04014c00b8030000f4
:020000040000fa
:04015000b8030000f0
:020000040000fa
:04015400b8030000ec
:020000040000fa
:04015800b8030000e8
:020000040000fa
:04015c00b8030000e4
:020000040000fa
:04016000b8030000e0
:020000040000fa
:04016400b8030000dc
:020000040000fa
:04016800b8030000d8
:020000040000fa
:04016c00b8030000d4
:020000040000fa
:04017000b8030000d0
:020000040000fa
:04017400b8030000cc
:020000040000fa
:04017800b8030000c8
:020000040000fa
:04017c00b8030000c4
:020000040000fa
:04018000b8030000c0
:020000040000fa
:04018400b8030000bc
:020000040000fa
:04018800b8030000b8
:020000040000fa
:04018c00b8030000b4
:020000040000fa
:04019000b8030000b0
:020000040000fa
:04019400b8030000ac
:020000040000fa
:04019800b8030000a8
:020000040000fa
:04019c00b8030000a4
:020000040000fa
:0401a000b8030000a0
:020000040000fa
:0401a400b80300009c
:020000040000fa
:0401a800b803000098
:020000040000fa
:0401ac00b803000094
:020000040000fa
:0401b000b803000090
:020000040000fa
:0401b400b80300008c
:020000040000fa
:0401b800b803000088
:020000040000fa
:0401bc00b803000084
:020000040000fa
:0401c000b803000080
:020000040000fa
:0401c400b80300007c
:020000040000fa
:0401c800b803000078
:020000040000fa
:0401cc00b803000074
:020000040000fa
:0401d000b803000070
:020000040000fa
:0401d400b80300006c
:020000040000fa
:0401d800b803000068
:020000040000fa
:0401dc00b803000064
:020000040000fa
:0401e000b803000060
:020000040000fa
:0401e400b80300005c
:020000040000fa
:0401e800b803000058
:020000040000fa
:0401ec00b803000054
:020000040000fa
:0401f000b803000050
:020000040000fa
:0401f400b80300004c
:020000040000fa
:0401f800b803000048
:020000040000fa
:0401fc00b803000044
:020000040000fa
:04020000b80300003f
:020000040000fa
:04020400b80300003b
:020000040000fa
:04020800b803000037
:020000040000fa
:04020c00b803000033
:020000040000fa
:04021000b80300002f
:020000040000fa
:04021400b80300002b
:020000040000fa
:04021800b803000027
:020000040000fa
:04021c00b803000023
:020000040000fa
:04022000b80300001f
:020000040000fa
:04022400b80300001b
:020000040000fa
:04022800b803000017
:020000040000fa
:04022c00b803000013
:020000040000fa
:04023000b80300000f
:020000040000fa
:04023400b80300000b
:020000040000fa
:04023800b803000007
:020000040000fa
:04023c00b803000003
:020000040000fa
:04024000b8030000ff
:020000040000fa
:04024400b8030000fb
:020000040000fa
:04024800b8030000f7
:020000040000fa
:04024c00b8030000f3
:020000040000fa
:04025000b8030000ef
:020000040000fa
:04025400b8030000eb
:020000040000fa
:04025800b8030000e7
:020000040000fa
:04025c00b8030000e3
:020000040000fa
:04026000b8030000df
:020000040000fa
:04026400b8030000db
:020000040000fa
:04026800b8030000d7
:020000040000fa
:04026c00b8030000d3
:020000040000fa
:04027000b8030000cf
:020000040000fa
:04027400380300004b
:020000040000fa
:040278005803000027
:020000040000fa
:04027c007803000003
:020000040000fa
:0402800098030000df
:020000040000fa
:04028400b8030000bb
:020000040000fa
:04028800b8030000b7
:020000040000fa
:04028c00b8030000b3
:020000040000fa
:04029000b8030000af
:020000040000fa
:04029400b8030000ab
:020000040000fa
:04029800b8030000a7
:020000040000fa
:04029c00b8030000a3
:020000040000fa
:0402a000b80300009f
:020000040000fa
:0402a400b80300009b
:020000040000fa
:0402a800b803000097
:020000040000fa
:0402ac00b803000093
:020000040000fa
:0402b000b80300008f
:020000040000fa
:0402b400b80300008b
:020000040000fa
:0402b800b803000087
:020000040000fa
:0402bc00b803000083
:020000040000fa
:0402c000b80300007f
:020000040000fa
:0402c400b80300007b
:020000040000fa
:0402c800b803000077
:020000040000fa
:0402cc00b803000073
:020000040000fa
:0402d000b80300006f
:020000040000fa
:0402d400b80300006b
:020000040000fa
:0402d800b803000067
:020000040000fa
:0402dc00b803000063
:020000040000fa
:0402e000b80300005f
:020000040000fa
:0402e400b80300005b
:020000040000fa
:0402e800b803000057
:020000040000fa
:0402ec00b803000053
:020000040000fa
:0402f000b80300004f
:020000040000fa
:0402f400b80300004b
:020000040000fa
:0402f800b803000047
:020000040000fa
:0402fc00b803000043
:020000040000fa
:04030000b80300003e
:020000040000fa
:04030400b80300003a
:020000040000fa
:04030800b803000036
:020000040000fa
:04030c00b803000032
:020000040000fa
:04031000b80300002e
:020000040000fa
:04031400b80300002a
:020000040000fa
:04031800b803000026
:020000040000fa
:04031c00b803000022
:020000040000fa
:04032000b80300001e
:020000040000fa
:100400008f0921000eff22000e018800000000006d
:10041000000020000000e000020032000001200087
:100420002002880014000700d30007000000e0004d
:1004300003003a00a09c21000100200002003700c8
:100440000000200001002000810f70000100320038
:100450000f000700000020000000e0000200320052
:1004600000000200000000007a19020000000000f5
:100470000040da000000fe00e00620000000e0007e
:1004800002003200002020009001880000000600d9
:10049000a1028800800478000000eb001f003700f4
:1004a000e284440054a0b4009905ba00e2844400f8
:1004b00054a0b4009906ba00e284440054a0b400e9
:1004c0000006eb00476fde00fd07b200ae018800ba
:1004d000636ce10003003a000ad801000000eb0061
:1004e0000e003700606ce10008003a00004deb00a0
:1004f0000a05e800020039003420ec000af0a000f0
:100500008b05e900f9ff3e00040037006168e10057
:10051000010032000086eb000b00070019c7ba008b
:100520000e04e0001905ba0003003a000a00e000da
:10053000dbff3a0000000600fe07b200ae028800b2
:100540008a047800f5ff37000cd0a300e20f4d00bd
:100550001c003b0089027800354dba000a05e8000e
:10056000020039003420ec000af0a0008b05e900fd
:100570000f003200254dba000a05e80002003900dc
:100580003420ec000af0a0008b05e90008003200de
:100590000c00e0000600320015cdba000a05e800a4
:1005a000020039003420ec000af0a0008b05e900bd
:1005b0008984e80054a0b4000b00e000e2ff3a0098
:1005c000000006009902ba00055d78008b05e9007d
:1005d000f7ff3200c82ade00055d78008b05e900d0
:1005e000f3ff32000c00e000f1ff320019ddba0029
:1005f000eeff3700cc170400000000009417040041
:10060000000000008a1804000000000052180400d6
:1006100000000000d216040000000000c81604000c
:10062000000000000419040000000000fa18040093
:10063000000000003600f800809fbe00829fbe00d0
:10064000849fbe00869fbe000000fa000068a900db
:100650000e0507000080fa004f03be004f02be00e7
:100660004f01be004f00be003600f90000400600fa
:100670003600f800809fbe00829fbe00849fbe00af
:10068000869fbe000000fa001268a900b0698400cd
:100690003f0907000080fa004f03be004f02be0072
:1006a0004f01be004f00be003600f90000400600ba
:1006b0003600f800809fbe00829fbe00849fbe006f
:1006c000869fbe000000fa001288a900106984000d
:1006d0002f0907000080fa004f03be004f02be0042
:1006e0004f01be004f00be003600f900004006007a
:1006f0003600f800809fbe00829fbe00849fbe002f
:10070000869fbe000000fa0012a8a900b06884000d
:100710001f0907000080fa004f03be004f02be0011
:100720004f01be004f00be003600f9000040060039
:100730003600f800809fbe00829fbe00849fbe00ee
:10074000869fbe000000fa0012c8a90060698400fc
:100750000f0907000080fa004f03be004f02be00e1
:100760004f01be004f00be003600f90000400600f9
:100770000040da000000fe00000005001400200028
:1007800089033700f4ff2f00870337000001be0004
:100790001b0007000470a70003f0a10003f8a300ea
:1007a00013003a006509b10010003200090035005d
:1007b0006928e10002003500010028000000050062
:1007c00000004000818048008502e900fcff3a00fb
:1007d00000000600f88f4200050035008100d100be
:1007e0000080d3008502e800fcff3a00000006000c
:1007f0008000eb00000005006011b80085033700a1
:10080000c70ade00f107b200f50fb200080032009f
:10081000e1cf4200020032000170a0002400050078
:10082000810f70000100320004080500440005003b
:10083000810f700002003a00140005008502e900f3
:100840000000400081c04800fcff3b000170a00098
:100850002400050007f82700078361000638e1003f
:1008600004003a00f70720008783610087037100c6
:1008700001003a0003f0a200889fbe008a9fbe00dc
:100880008c9fbe00470ade000480a100c71ade006c
:100890000580a100070028000785600087856100aa
:1008a000f70f20000720e1009e0032000728e1003a
:1008b0009c003200010678000400e000b400320021
:1008c000f7072000878060000170a0000500e000ad
:1008d000c0003200f7072000878161000370a0008c
:1008e000050652000f003a000b50e1000b003200e9
:1008f0000308e10002003a000200e1007e0032003d
:100900000204500083845800040031000001fd00ff
:100910008101fd008402fd008a05fd006044b800ed
:10092000210037000520e10005003d000001fd0029
:100930008101fd008402fd008a05fd0005065200cc
:100940007a60e100050035000170a1004722dd005a
:10095000848070008a807000630037006044b800b3
:10096000ef02660007ff2f00070666000500e000a3
:1009700006003400f08312008714dd000511de004c
:10098000071bdd00060171008519de007060e100c3
:10099000050035000904780082047800030178001e
:1009a0008001eb00700656000b50e10003003a0096
:1009b00002004000838048000400370060041400f7
:1009c000e0841c0002005800838058000188a300c6
:1009d000060032008100d1000080d3008984d3005a
:1009e0000884d3000402e800270037000178a30040
:1009f00025003a000100e000030032008186cf00ac
:100a0000698656000a0037008c0020000000e000d4
:100a100004003a0009007800880478000004eb0024
:100a2000700252008086cf000d0646000c06e900d9
:100a30007060e10006003500800078000900780051
:100a4000880478000004eb00700656007002520023
:100a50000c00e0000c0034008c08dd00f0031600f0
:100a60000703de00868070000c00dd00074bde000f
:100a7000060070008c4cdd000743de0086847400a5
:100a80000c44dd000c0252006120e1002000350022
:100a9000610160000700280087816400f7ff2700dc
:100aa00087836400070374000300e000060032003f
:100ab00082037300040032000000e800e080480078
:100ac0000188a3000e003a00f70f20000720e10084
:100ad0004a003d000170a1004722dd008100720044
:100ae0008a8070000000be004f06be004f05be00a9
:100af0004f04be00000006006000b800faff370097
:100b00008100d1000080d3000402e800eeff37002e
:100b10000401780089017400a10107008a80700037
:100b2000f1ff3700f7010700070278000001fd0020
:100b30008101fd00f3010700870278008503720040
:100b40000778a300040032000001fd008101fd00d0
:100b500006020700e4ff3700850362000768a30070
:100b6000080032000b50e10003003200f0ff2f00bc
:100b7000f1ff2700dcff37000001fd008101fd00cf
:100b8000d9ff37000468a300d7ff3200faff37000f
:100b9000f8ff2700888360000b003a000000e000a7
:100ba00009003a008303640082837300020032006c
:100bb0000200be00ccff37000b50e100ceff3a0030
:100bc0000200be00c8ff370014002000810064004e
:100bd0003eff3700f8ff27008883610004003a00d9
:100be0000200e00002003a008c007800beff3700ef
:100bf000150020008301640039ff370001f8270049
:100c00000000200081007500b7ff3700889fbe00fc
:100c10008a9fbe008c9fbe001b0020000202be0007
:100c20000586680006002800060666004709de0003
:100c3000f20fb200820032000243e800800032006e
:100c4000c729de00f30fb2007d0032000343e80045
:100c50007b003200f107b2000170a000f507b2007e
:100c60000570a000c708dd004903de008680700023
:100c70004700dd00c72add004923de0086827200be
:100c80004722dd000305510004035000858358000e
:100c90000300310000004000818048000a05e9009f
:100ca0008c1f78008a9fbe00040050008580580089
:100cb0000402420085824a00000040008180480012
:100cc0000005eb000004be006033b8000406be005f
:100cd0000d48e10056003100110009004dccd8004c
:100ce0000c01b8000d02b8008481410060824a0006
:100cf0008283530003045c0084845c0060055d0013
:100d00000a00e00025003a00800578000d40e1006f
:100d100049003100880078000700780011000900c0
:100d20004d88d8000c01b8000d02b8008481410044
:100d300060824a006003110083835b0004045c004e
:100d4000e0845c000900e00021003a004f01be0091
:100d50000300e0002b003200e3016000070673008f
:100d60008c81710001003200640070004200de00de
:100d70004e5edd000c007000c258de0001e0a000f5
:100d800083010700cf017800818071004f06be000b
:100d90004f05be004f04be00000006008c834300d8
:100da0000d044c00e0844c0060054d000000e9009b
:100db0000a00e000d4ff32008c8343000d044c0095
:100dc000e0844c0060054d000000e900ceff3700d4
:100dd0000c0343008d834b0060044c00e0844c0006
:100de0000000e9000900e000d8ff32000c034300d6
:100df0008d834b0060044c00e0844c000000e9004f
:100e0000d2ff37004200de004e5edd000c007000b5
:100e1000c258de0001e0a000cf0178000300e0002e
:100e2000daff320060001000e0801800d7ff3700c2
:100e3000f0ff2f00aaff3700f0ff2f00b9ff3700a7
:100e40000404be002f010700870678000004fd009f
:100e50008104fd002b010700078366000678a300cc
:100e6000030032000960a7000800be002c00370014
:100e70000d78a300020032000800be0028003700f1
:100e80000778a30026003a0001f0a10009f0a100b4
:100e90000668a30003003200f1ff2700f0ff2f00d7
:100ea000baff37000d68a300030032000800be003f
:100eb0008c807000b5ff37000768a30007003a0078
:100ec0000648a30003003200f1ff2700f0ff2f00c7
:100ed000aeff37000d48a300030032006000b800e9
:100ee0008c807000a9ff37000748a300040032007f
:100ef00001f82700000020008c807000a3ff37005d
:100f0000760107000004fd008104fd000205780061
:100f1000720107000802be008a01780059ff3700fd
:100f20000160a00012022000a280880097ff370015
:100f30000100e000120032000500e0001000320065
:100f4000889fbe008a9fbe008c9fbe000006eb00fb
:100f500001f8a3000300320060001000e0801800d8
:100f60000cf0a00005f8a30003003200600212009c
:100f7000e0821a000cf0a2008005eb0041ff370070
:100f80006000b80002000500038368000700280025
:100f900007036300470ade000480a100c71ade00d1
:100fa0000580a100f70f20000720e1004200320079
:100fb0000728e10040003200889fbe008a9fbe00e3
:100fc0008c1f7800f107b200f307b2000400e000c4
:100fd000640032000170a0000500e00068003200eb
:100fe0000370a00085054200eb07b1000204b800c1
:100ff0000302b8008484440060854a00020ab800f5
:10100000848444000a854a00030ab80004054500a8
:10101000040033000804d0008984d2000a85d2007d
:101020008b05e9006158e1003d0035000210200009
:10103000090161000308200089816100f707200091
:101040008783640008867300c84cde00c853dd0047
:10105000878474004855de000300e000060032007b
:1010600082037600040032008904e80060054d0028
:101070000a88a3000c003a00f70f20000758e1008f
:1010800044003d000a70a100c75ddd000a857500bf
:101090008a007300090078004f0678004f05be00f3
:1010a0004f04be00000006000a05d1008984d30069
:1010b0008b05e800f0ff3700881f780006047800f1
:1010c00090000700070278000001fd008101fd008b
:1010d0008c00070087027800850372000778a30060
:1010e000050032000001fd008101fd009f000700a6
:1010f0004f04780000000600850372000748a30033
:1011000003003200f0ff2f00f1ff2700f8ff370047
:101110000000200001f8270088807000f4ff3700ed
:10112000880178004848dd00808171004848de0071
:10113000c850dd0001007000c850de0006047800d1
:101140000b0178001600070088807000d2ff37007e
:101150000500e00005003200170020003a000700fb
:101160009dff370081037000f9ff3a008600780088
:101170004f0678004f05be004f04be00000005007a
:1011800083037100f9ff3200270020002e000700c2
:1011900094ff370001f8270086807000f4ff3700c5
:1011a0000100e00026003200610111007810e1002a
:1011b00023003c006022b8007010e10004003500fc
:1011c00080027800010078008000eb00700151007f
:1011d0000200e0000900340070031100062add005f
:1011e000822ade008603dd00878272000200de00b4
:1011f000860bdd00070070008208de00848171002c
:10120000f4ff27000482620084817100040028003a
:10121000848262006102600005f0a6000000060002
:1012200004827100070032000000e800e0804800fe
:10123000000006000002be006000b800efff3700ab
:101240006000b80000000600889fbe000004eb00ac
:101250006138e10016003a000100e00008003a00a1
:10126000c800de004800dd00880020000100e0002a
:1012700003003a00c800de004800dd0068044400b6
:101280008184cf00e9845400060034008908dd0021
:10129000f08314008703de00878070000900dd0002
:1012a00009044400610214004f04be00000006005f
:1012b0000300e00008003a00c811de004811dd001c
:1012c000880020000300e00003003a00c811de009f
:1012d0004811dd00680444008384cf00e984540091
:1012e000060034008919dd00f08314008713de0046
:1012f000878171000911dd0009044400e102140036
:10130000e9ff37002700200001f0a70017002000a8
:10131000470bde00f60fb200040032000643e8007f
:101320000a0032004702b300000006000103780003
:10133000f607b2000603700002003a000703b3008c
:10134000000006008702b3000000060001037800d9
:10135000f607b20006037000020032000770a0001a
:10136000000006000760a000000006000478a3004b
:10137000040032000578a300030032000168a300d6
:1013800001003a000200be000160a000000006005b
:1013900081017000270032008002eb0001f8a300f9
:1013a0000300320060001000e080180015002000eb
:1013b000f40720000202420020003400f70320005e
:1013c0008703600006042000000363000208200079
:1013d000000161004700de00c909dd0000807100e6
:1013e000c708de000600e000080032008703710035
:1013f000060032001000b0000180b0000188a30098
:1014000002003200c108de000402e800f107b20069
:10141000f30f20000320e10003003d004722dd0020
:10142000810072002900370001f827000000eb005e
:10143000260037006000b8000000060068021200b5
:101440007f20e100020034006000b8001f00370078
:101450006011b8007020e1000400350080017800c0
:10146000010078008000eb00700252000400e000f0
:1014700009003400f00312000719dd008419de00b2
:101480000703dd00868171000400de00070bdd002c
:10149000060070008408de00f7ff270083836300e6
:1014a0008703710006002800030363000700320071
:1014b0000700e00003003a00610160000281730050
:1014c000020032001000b0000180b0000500a6004c
:1014d0000000060001f0a000000006004f0ade0038
:1014e0004709de00f107b200f20fb2000b00320034
:1014f000f207b1000170a000c708dd00c901de00dd
:10150000838070004700dd000400a6000000060094
:1015100060001000e080180000000600810f7000dd
:1015200001003a00000006008182cf000500e000c3
:1015300010003e008082cf00ee8242007028e10061
:101540000400390007003e00800078000000eb0036
:101550000e003700708312008600de000500dd00fb
:101560000a003700708352008600dd000000eb00a7
:1015700006003700e28252008508dd007083120009
:101580000603de00868070000500dd007507b000f0
:101590000501ea000400a60000000600600010003b
:1015a000e080180000000600889fbe008a9fbe00f1
:1015b000841f78006c0007004f0078001100330092
:1015c000f0ff2f00838f6c0006003b0004056500d0
:1015d0000a00a7000800370009f0a600100020004c
:1015e00008003700820f5400838f5c00030039002d
:1015f0001000200001003e000000200009f0a700bc
:101600000000ea004f05be004f04be000000e000ed
:1016100000000600889fbe008a9fbe000082700006
:101620000402710004827100260032000004be0032
:101630000200be006011b8006b0920009502200076
:101640000182cf000a0039000541b1000082cf00bd
:10165000070039000541b1000982cf0004003900bc
:101660000541b1000882cf00010039000541b100f9
:1016700005425200120032000a003b0082817100d4
:10168000610164008100d1000080d3008984d3000f
:101690000884d3008b05e8000442e800f7ff3a0015
:1016a000070037000804440089844c00000048000b
:1016b000818048008b05e9000442e900f9ff3a0007
:1016c000030007004f05be004f04be0000000600e7
:1016d00081002000618055000b003d000b002000c0
:1016e00061fe2f000100e1001d00340082817100c5
:1016f000610164008904d1000884d3000000e8007f
:10170000faff3a00710020006100640003007000dd
:10171000020060000900320061044400e0844c00d3
:101720000988a500050032008b05e8006808e10083
:1017300002003a008904d1000884d300f20f20008f
:101740000258e10005003d00c75ddd00f907b20069
:101750008980750008007800000006000bf827005b
:101760008b007800000005000004be0024fc070088
:101770000003be000405be000200be0020fc0700fe
:10178000844f750000000600889fbe008a9fbe003f
:101790008c9fbe000004be000400200005f8270056
:1017a0008583600004037800840f5300858f5b00fd
:1017b00007003a000801be000800be00f2fd070065
:1017c0000001be000800be002bfc0700100037001f
:1017d000e00f5000e08f58000f003c0081017800be
:1017e00003f0a10000017800e00f5100e08f5900e4
:1017f0006a00320010022000b08488000801be0098
:101800000800be0013fc07000001be00fffc07003b
:101810000004be0061003700478cde00cf8cde0084
:10182000e00f5400e08f5c000f003a006044b80005
:10183000040037000000400081804800610444003b
:10184000e0844c0004002000050820008181620033
:1018500004017800e00f5100e08f5900f5ff3200dd
:1018600061041400e0841c00f807b1000980b10095
:1018700081017800f307b200000178000200be0089
:101880000170a0000808a300020032000000400020
:10189000818048008984d1000884d3000000400082
:1018a00081804800940120000200200003102000e5
:1018b0006055b8006066b8000c0341008d83490094
:1018c000800f5300818f5b0006003c00060641003c
:1018d0008786490006005000878058000a054100ad
:1018e0008b85490000004000818048008301d100c1
:1018f0000281d3000402e900efff3a00e00f50003c
:10190000e08f58001b0032000226240023da20005a
:101910000000200001f82300cefb07000200200099
:1019200003f8230097fb07000000e00011003500da
:101930000226240023da20000000200001f8230002
:10194000cdfb07000200200003f823008dfb0700f9
:101950000000e0000300340062054500e0854d0012
:10196000040037006000b800610065000005450014
:1019700081854d00c744dd000800200000002000e4
:1019800001f0230008044000898448008b85d100c1
:101990000a85d3000804450089844d000800be0074
:1019a0004f06be004f05be004f04be0000000600fb
:020000040000fa
:1019b00062730000705f00006473000070690000d3
:1019c0006300000003000000140000000500000098
:1019d000030000000a0000000300000003000000f4
:1019e0002800000005000000030000001e000000a9
:1019f0000700000000000000040000003c000000a0
:101a0000010000003c000000050000005000000044
:101a100002000000500000006275000074740000b5
:101a20006f6e000032610000000000007a100000bc
:101a300062750000747400006f6e00003262000076
:101a40000000000088100000626c0000696e000059
:101a50006b7900003100000046100000626c00004d
:101a6000696e00006b790000330000006010000018
:101a700073730000745f0000706f000072740000e8
:0c1a800000000000737300007400000000
:020000040000fa
:101a8c000c00fa00889fbe008a9fbe008c9fbe008f
:101a9c00ff00070060698400a1cf2800fd02070049
:101aac00b0698400a1cf2800fa02070000e22000f0
:101abc0010009000680060000080ea008000eb00dd
:101acc00008fbe00000021001001780090019000f2
:101adc0022079800330798000000210010027800bc
:101aec009002900000002100b000900020009000b7
:101afc001e0178009e01900080037800010378009d
:101b0c00020078008300780000806300810063008d
:101b1c0051079800400798004e009000de0090009e
:101b2c000000720081807200020021000089be005a
:101b3c0000002100100178009001900000002100ad
:101b4c00b0009000200090003e027000ae82700049
:101b5c000400be00020278000301780080017800c6
:101b6c00810078000300620081006100810678002a
:101b7c00000678000c00be00020021000089be00a7
:101b8c00000021001e0178009e01900022009800a8
:101b9c0033009800000021009000900010007800a5
:101bac002e019000be019000000069008180690048
:101bbc0020079800310798002e009000be0090007e
:101bcc0000007800680060008005eb0000057800dc
:101bdc000a00be00e00f5000e08f580018003200e1
:101bec0000002100900090001000780000007800a8
:101bfc00680060008004eb00000478000800be0060
:101c0c00e00f5000e08f580007003200b0688400ed
:101c1c00c1cf28009f020700b068840001d02800c3
:101c2c009c02070006003700b068840041d02800f1
:101c3c0098020700b068840081d028009502070044
:101c4c009a0007004f06be004f05be004f04be00b1
:101c5c000080fa00000006000800fa002007980037
:101c6c0031079800c3e8a90010d0bf000040e8007d
:101c7c0010f0b700d800070000242400f100200069
:101c8c00008fbe00050037001e0078009e009000fb
:101c9c0061005000e0805800008fbe001e007800ec
:101cac009e009000e00f5000e08f5800f6ff3a00c5
:101cbc00d300070000242400f1002000008fbe0098
:101ccc00050037001e0078009e0090006100500057
:101cdc00e0805800008fbe001e0078009e0090002f
:101cec00e00f5000e08f5800f6ff3a00e1ff37009c
:101cfc000400fa00000f7800110798009e00900075
:101d0c001e007800d4ff07000080fa0000000600d7
:101d1c000000fa00b069840031c9b300dc0307008d
:101d2c001069840041c9b300d9030700b06884006e
:101d3c0051c9b300d60307006069840061c9b300c0
:101d4c00d303070012c0b3000101200000e0200003
:101d5c000501070012c0b3008100200000e0200044
:101d6c000101070012c0b3000180200000e1200037
:101d7c00fd00070012c0b3000100210000e12000ab
:101d8c00f900070012c0b3000100220000e120009e
:101d9c00f500070012c0b3000100240000e1200090
:101dac00f100070022c0b3008100200000e22000f7
:101dbc00ed0007000080fa00000006000c00fa009d
:101dcc00881f780040079800510798004e0090003b
:101ddc00de00900069fe0700008fbe001e01780037
:101dec009e0190004e009000de00900084fb0700e6
:101dfc00200798003107980072712b00138d230077
:101e0c001e0078009e0090008ffa070018c0b300e7
:101e1c002e019000be01900055fa07000000e00072
:101e2c00010034000044eb00084078000004a200dc
:101e3c000004e00010003a0072712b00138d230097
:101e4c001e0078009e00900088fa070018c0b300ae
:101e5c002e019000be01900047fa07000000e00040
:101e6c0001003d000044eb00084078000004a20093
:101e7c000004e00003003200810c200080cd28001b
:101e8c0075ff07004f0478000080fa000000060080
:101e9c000000fa0012c0b3000101200000e0200095
:101eac008c0007000080fa00000006000000fa0019
:101ebc000041eb000101200000e02000850007003c
:101ecc000080fa00000006000000fa0012c0b30007
:101edc008100200000e020007e00070090412000df
:101eec00e1f92300b5ff07000080fa0000000600ae
:101efc000000fa000041eb008100200000e020000f
:101f0c00740007000080fa00000006000000fa00d0
:101f1c0012c0b3000180200000e120006d0007001a
:101f2c00703d2a0001eb2300a4ff07000080fa009b
:101f3c00000006000000fa000041eb0001802000c8
:101f4c0000e12000630007000080fa00000006009a
:101f5c000000fa0012c0b3000100210000e12000d3
:101f6c005c000700508d270091ee230093ff0700c3
:101f7c000080fa00000006000000fa000041eb00af
:101f8c000100210000e12000520007000080fa004f
:101f9c00000006000000fa0012c0b300010022008d
:101fac0000e120004b0007005037290081fc230082
:101fbc0082ff07000080fa00000006000000fa0013
:101fcc000041eb000100220000e12000410007006d
:101fdc000080fa00000006000000fa0012c0b300f6
:101fec000100240000e120003a000700904120008d
:101ffc00e1f9230071ff07000080fa0000000600e1
:10200c000000fa000041eb000100240000e1200078
:10201c00300007000080fa00000006000200fa0001
:10202c00004f78001e407800e14f5000030036004e
:10203c00411f200080cd280007ff07001e80fb00f9
:10204c00e600b90080007800e0ce28000080400057
:10205c000080fa00000006000200fa00004f780031
:10206c001e407800e14f500003003600812520000f
:10207c0080cd2800f8fe07001e80fb00e600b900aa
:10208c008000780020ce2800008040000080fa00fc
:10209c00000006000200fa00f500070040012000d5
:1020ac00000f78001e007800c000070071c0b3005c
:1020bc0030002000fa0007000080fa000000060043
:1020cc000000fa00c4ff0700cdff07000080fa00f3
:1020dc00000006000600fa00000f780011079800b7
:1020ec00424798004e4090000004e0000700320088
:1020fc001e007800900090001e009000810070007f
:10210c001e00780011009800070037001e007800b0
:10211c00900090001e0090000080ea00808060001b
:10212c001e007800110098000080fa0000000600e4
:10213c000400fa00000f7800110798001e007800c8
:10214c00900090001e0090000080600000f0a7003e
:10215c000000ea000000ea004f00de0000407800ba
:10216c000080fa00000006000600fa00000f78005c
:10217c0011079800424798004e409000e54f5000e0
:10218c0022003a001e007800900078001e0090009b
:10219c00810070001e007800010878001e00780095
:1021ac00c00090001e0090000080ea00808060005b
:1021bc001e007800410098001e007800d0009000ae
:1021cc001e0090000080ea00808060001e007800f5
:1021dc00510098001e007800e00090001e00900056
:1021ec000080ea00808060001e007800610098008a
:1021fc001e007800f00090001e009000810070001e
:10220c001e00780071009800660037004e40900068
:10221c00e44f50000e003a001e007800b000900011
:10222c001e009000810070001e00780031009800a4
:10223c001e007800f00090001e0090000080ea0064
:10224c00808060001e0078007100980055003700f7
:10225c001e007800b00090001e0090000080ea0084
:10226c00808060001e007800310098001e0078000d
:10227c00f00090001e0090000080ea00808060005a
:10228c001e007800710098004e409000e14f500005
:10229c001d003a001e007800c00090001e00900047
:1022ac000080ea00808060001e00780041009800e9
:1022bc001e007800d00090001e0090000080ea0004
:1022cc00808060001e007800510098001e0078008d
:1022dc00e00090001e0090000080ea00808060000a
:1022ec001e007800610098001e00780090007800b5
:1022fc001e0090000080ea00808060001e007800c4
:10230c0001087800270037001e0078009000780044
:10231c001e009000810070001e00780001087800fb
:10232c004e409000e24f50000e003a001e00780024
:10233c00e00090001e0090000080ea0080806000a9
:10234c001e007800610098001e007800d0009000fc
:10235c001e009000810070001e0078005100980053
:10236c00100037004e409000e34f50000d003a0033
:10237c001e007800d00090001e0090000080ea0043
:10238c00808060001e007800510098001e007800cc
:10239c00e00090001e009000810070001e0078008c
:1023ac00610098000080fa00000006000800fa00a6
:1023bc00300798003e0090008000eb000bf90700fe
:1023cc000001be000000200001f823000cfa0700f9
:1023dc00008fbe0002002000a34724001e007800de
:1023ec009e009000e5fa0700008fbe00020020005e
:1023fc00a34724001e0078009e009000dffa07001f
:10240c00008fbe0005e1a9000421a90004c1a900a8
:10241c0021088000f0fc2f00008060000040a0002c
:10242c00200888000021ef00a2702d00b30e2400bc
:10243c001e0078009e009000d0fa070002002000d9
:10244c0003182400eef90700cdf80700000078000f
:10245c00200798002e009000100888000068a90042
:10246c002068a80005e1a8000080fa000000060022
:10247c000000fa00213a8000f0ff28000080600084
:10248c0000d0a000203a88000080fa00000006006e
:10249c000000fa000040da000080fa00000006009c
:1024ac000400fa00000f7800214798001e00780005
:1024bc004200de0080004000010178000184200011
:1024cc0081004100000040000001780000842000e1
:1024dc0000004100100178009e01780063806100cb
:1024ec004200dd00730020000018dd000080ea00cf
:1024fc0000006100800878001e0078004200de00b9
:10250c00800040000101780001842000810041001e
:10251c000000400000017800008420000000410011
:10252c00100178002e4090008081fb001e02780084
:10253c00630062004200dd000018dd000200700044
:10254c00800878000080fa00000006000200fa0003
:10255c00000f78001e0078004400de008000400070
:10256c000101780001822000810041000000400040
:10257c00000178000082200000004100100178006a
:10258c001e0078006f006000130020000018dd00b2
:10259c0002007000800878000080fa00000006003d
:1025ac000000fa0043010700bafe0700c4fe070052
:1025bc00feff37000600fa00000f780011079800a4
:1025cc00220798001e0078009e00900001087800f9
:1025dc001e007800ae009000110098000080fa00f8
:1025ec00000006000a00fa00000f7800214798004e
:1025fc002207980063479800440798002e409000eb
:10260c000004e000060032002e0090000000e00004
:10261c00030032006e4090000004e00003003a001a
:10262c00810c200020d428008bfd07001e007800b0
:10263c00ae009000210098006e4090008040e900b0
:10264c001e007800614098001e0078008040eb006e
:10265c00714098001e0078008040eb000148980003
:10266c001e0078008040eb0011489800ae409000ae
:10267c001e007800120107001e007800100178007f
:10268c00ce0090001e007800020001000080fa00cd
:10269c00000006000400fa00000f780011079800f3
:1026ac001e007800904890001e007800604090005a
:1026bc0080cf500003003600c112200020d4280027
:1026cc0065fd0700c3e8a90010d0bf000040e8007a
:1026dc0010f0b7001e007800a00090001e007800db
:1026ec00704090000080fb00000040000080400023
:1026fc009e009000010878001e0078007040900049
:10270c000004e00005003a001e007800e040900054
:10271c001e00780071409800050037001e007800fc
:10272c00704090008040e9001e00780071409800d5
:10273c001e007800104890008040e8001e007800d1
:10274c00114898001e007800500090009e00780000
:10275c00d1009000110178009e007800e1009000fb
:10276c00828070000108780010d0bf000040e900a2
:10277c0010f0b70010d0bf000004e00001003a00d8
:10278c00c3e8a8000080fa00000006000600fa006a
:10279c00000f780011079800220798001e0078009f
:1027ac009e009000010878001e007800ae0090009a
:1027bc00210098001e0078008000eb00310098008a
:1027cc001e0078008000eb00410098009180800092
:1027dc001e007800110098009e00780091808800ff
:1027ec000080fa00000006000600fa00000f7800d6
:1027fc001107980022079800c3e8a90010d0bf0069
:10280c000040e80010f0b7001e0078009e00900019
:10281c00310098001e007800ae0090004100980036
:10282c0010d0bf000040e90010f0b70010d0bf007e
:10283c000004e00001003a00c3e8a8000080fa00a0
:10284c00000006000400fa0010079800c3e8a90075
:10285c0010d0bf000040e80010f0b7001e00900040
:10286c003000900000f0a7000000ea000000ea0031
:10287c004f00de00004f78001e0090008000eb003f
:10288c00310098001e0090008000eb004100980081
:10289c0010d0bf000040e90010f0b70010d0bf000e
:1028ac000004e00001003a00c3e8a8001e407800d4
:1028bc000080fa00000006000200fa0091808000ff
:1028cc00010f780033003700c3e8a90010d0bf0017
:1028dc000040e80010f0b7001e00780030009000b7
:1028ec000000e00008003a0010d0bf000040e900f2
:1028fc0010f0b70010d0bf000004e00022003a0036
:10290c00c3e8a800200037001e00780030009000bb
:10291c00e10f500010003a001e007800c00090003b
:10292c001e0078003100980010d0bf000040e90074
:10293c0010f0b70010d0bf000004e00001003a0016
:10294c00c3e8a8009e0078001e00780020009000cc
:10295c0050ff07000c0037001e007800300090007c
:10296c008000e9001e0078003100980010d0bf00f4
:10297c000040e90010f0b70010d0bf000004e000e8
:10298c0001003a00c3e8a8001e00780090009000f7
:10299c00010f78001e0078000000e000caff3a002a
:1029ac000080fa00000006000400fa00000f780016
:1029bc00214798001e0078004200de008000400095
:1029cc0001017800018420008100410000004000da
:1029dc000001780000842000000041001001780004
:1029ec009e017800638061004200dd0073002000ce
:1029fc000018dd000080ea0000006100800878000b
:102a0c001e0078004200de008000400001017800ca
:102a1c00018420008100410000004000000178008a
:102a2c000084200000004100100178002e4090002e
:102a3c008081fb001e027800630062004200dd0012
:102a4c000018dd0002007000800878000080fa0099
:102a5c00000006000200fa00000f78001e0078004b
:102a6c004400de008000400001017800018220005b
:102a7c00810041000000400000017800008220002d
:102a8c0000004100100178001e0078006f0060000b
:102a9c00130020000018dd00020070008008780090
:102aac000080fa00000006000000fa000080fa0026
:102abc00000006000000fa000080fa00000006008a
:102acc000400fa00000f7800214798002e40900077
:102adc00e74f500003003e002e4090000004e00041
:102aec0003003a00810c200080d328005afc070018
:102afc00c3e8a90010d0bf000040e80010f0b700f8
:102b0c001e00780060009000ae409000a6ff070009
:102b1c001e00780060009000ceff070010d0bf00b0
:102b2c000040e90010f0b70010d0bf000004e00036
:102b3c0001003a00c3e8a8001e0078006000900075
:102b4c004400de000000400080007800008020007f
:102b5c00808040001e007800510098001e00780014
:102b6c00600090006f006000110020000008dd0084
:102b7c00800078001e007800610098000080fa0048
:102b8c00000006000400fa00100798001e009000d8
:102b9c00104890000004e00003003a00c11220002d
:102bac0080d328002cfc07001e009000a000900091
:102bbc001e009000004890000080fb0000004000c8
:102bcc0000804000100f78001e009000004890001c
:102bdc000004e00005003a001e009000e040900068
:102bec001e00900001489800050037001e00900060
:102bfc00004890008040e9001e00900001489800b9
:102c0c00c3e8a90010d0bf000040e80010f0b700e6
:102c1c001e009000104890008040e9001e009000bb
:102c2c00114898001e009000104890000004e0002d
:102c3c00090032001e009000500090009e00900091
:102c4c00d1009000110178009e009000e1009000ee
:102c5c00828070000108780010d0bf000040e900ad
:102c6c0010f0b70010d0bf000004e00001003a00e3
:102c7c00c3e8a8001e009000100190009e00780090
:102c8c001e009000020001000080fa000000060007
:102c9c000400fa00000f7800214798002e409000a5
:102cac008080fb001e007800610098000080fa0014
:102cbc00000006000400fa00204798001002800073
:102ccc004500de00674060000080fb00000f7800cc
:102cdc002e4090000080fb009e0f50000a00360032
:102cec002e409000674060000080fb006700600091
:102cfc004500dd0012028000f1f12f00810061001f
:102d0c0001007000100288001e0078000080fa009c
:102d1c00000006000200fa00000f78001e00780088
:102d2c0000407800674060000080fb006700600096
:102d3c004500dd0012028000f1f12f0081006100de
:102d4c0001007000100288000080fa0000000600ec
:102d5c000000fa00a0072100020007000080fa0022
:102d6c00000006000200fa00000f7800226d21001e
:102d7c00816c21001e0078000efe07000080fa0016
:102d8c00000006000400fa00000f780011079800fc
:102d9c000080fa00000006000a00fa0030079800d4
:102dac00410798004e00900010007800e20f500090
:102dbc0022003200e20f500003003e00e10f5000f1
:102dcc00060032003c003700e40f500015003200c2
:102ddc00e50f500032003200370037005cfc070072
:102dec0010c0b3008dfc070080007800606984007f
:102dfc0028fe070060fc07004e0090009000900039
:102e0c00010f78000300370051fc07005afc070043
:102e1c001e0fe9001e0078000000e000faff3a00e7
:102e2c00290037004afc070010698400ce0090008e
:102e3c0018fe070050fc07002300370044fc070075
:102e4c000040eb0075fc070080007800606984008e
:102e5c0010fe070048fc070040c0b30095ff0700b8
:102e6c00200798004e0090009000900011079800e9
:102e7c000500370036fc07003ffc07001e009000e1
:102e8c000000e900100798001e0090000000e00010
:102e9c00f8ff3a002e0090009eff07000a00370052
:102eac002bfc070010698400ce009000f9fd070090
:102ebc0031fc070004003700411f2000c0d028005f
:102ecc0065fb0700000000000080fa00000006000f
:102edc000000fa0060042100020007000080fa00e4
:102eec00000006000200fa00000f7800c27c2100ee
:102efc00417921001e007800aefd07009e0078008d
:102f0c001e0178006e004100010178008000eb008a
:102f1c001efe07000080fa00000006000400fa0004
:102f2c00000f7800110798001e0090000000e000d0
:102f3c00040032001e00900010007800e30f5000d7
:102f4c0003003200c112200040d2280042fb0700cf
:102f5c001e009000404090000081fb001e0090007d
:102f6c00404090008080fb009e0178006e80410004
:102f7c001dfe07001e009000900090001e007800bf
:102f8c00410898000080fa00000006000800fa00d2
:102f9c0020079800310798003e0090001000780040
:102fac000000e00003003200e30f5000110032007b
:102fbc002000370030c0b3003eff07001007980018
:102fcc002e009000c0089000010f7800030037001d
:102fdc00f0fb0700f9fb07001e0fe9001e0078004c
:102fec000000e000faff3a001e00900049ff0700c5
:102ffc0014003700e7fb07003e00900040409000b3
:10300c000081fb003e009000404090008080fb005f
:10301c002e0090006e004000f3fd07003e00900073
:10302c00900090002e00900041089800e3fb0700f0
:10303c0004003700411f200040d2280006fb070087
:10304c00000000000080fa00000006000000fa00fa
:10305c0000062100020007000080fa0000000600b4
:10306c000200fa00000f7800a288210021852100bf
:10307c001e0078004ffd07009e0078001e017800ae
:10308c006e004100010178008000eb00bffd0700dd
:10309c000080fa00000006000400fa00000f78001f
:1030ac00110798001e0090000000e00004003200a0
:1030bc001e00900010007800e30f50000300320057
:1030cc00c1122000e0d22800e3fa07001e00900095
:1030dc00404090000081fb001e009000404090009a
:1030ec008080fb009e0178006e804100befd0700d1
:1030fc001e009000900090001e007800410898007f
:10310c000080fa00000006000600fa001007980084
:10311c00210798002e009000100078000000e000bd
:10312c0003003200e30f50000c0032001b0037008c
:10313c001e009000c0089000010f780003003700bb
:10314c0061fb07006afb07001e0fe9001e007800f8
:10315c000000e000faff3a00140037005afb0700a9
:10316c002e009000404090000081fb002e0090004b
:10317c00404090008080fb001e0090006e004000dc
:10318c0099fd07002e009000900090001e0090000a
:10319c004108980056fb070004003700411f20002f
:1031ac00e0d22800acfa0700000000000080fa0012
:1031bc00000006000000fa00800821000200070051
:1031cc000080fa00000006000200fa00000f7800f0
:1031dc0042902100a18f21001e007800f5fc070011
:1031ec000080fa00000006000400fa00000f7800ce
:1031fc00110798000080fa00000006000a00fa008f
:10320c0030079800410798004e009000100078009d
:10321c00e40f500003003200e50f500013003200a1
:10322c002b00370039fb070010c0b3008afb0700e6
:10323c0080007800b069840016fd07003dfb070094
:10324c004e00900090009000010f780003003700b2
:10325c002efb070037fb07001e0fe9001e0078004d
:10326c000000e000faff3a001d00370027fb0700c2
:10327c000040eb0078fb070080007800b069840008
:10328c0004fd07002bfb070030c0b30089fe0700cc
:10329c00200798004e0090009000900011079800b5
:1032ac000500370019fb070022fb07001e009000e9
:1032bc000000e900100798001e0090000000e000dc
:1032cc00f8ff3a002e00900092fe07000400370031
:1032dc00411f200080d128005ffa07000000000089
:1032ec000080fa00000006000000fa00eefd070066
:1032fc0087fa0700f6fe07000040eb0047fb0700cb
:10330c00800078006069840001027800a3c0b300db
:10331c006201210011c0b300b2fc07008cfe070053
:10332c00b06884000002eb0083c0b300a20221004d
:10333c0021c0b300abfc07009eff0700106984009e
:10334c000002eb0063c0b300a203210021c0b30054
:10335c00a4fc07003dff07000040eb003efb07000c
:10336c0080007800b06984000102780043c0b3008b
:10337c008200210031c0b3009afc070088fc0700d2
:08338c000080fa0000000600b9
:020000040000fa
:10339400461000001a0000008000000060100000c9
:1033a4001a00000080000000001000000800000067
:1033b400800000007a1000000e0000008000000071
:1033c400881000000e0000008000000010100000b3
:1033d4000200000080000000121000000200000043
:1033e4008000000016100000300000008000000083
:1033f4000810000008000000800000001410000005
:10340400020000008000000096100000020000008e
:08341400800000000000000030
:020000040000fa
:020000040002f8
:04af0000ffffff0050
:020000040000fa
:020000040002f8
:04af2000ff1f00000f
:020000040000fa
:020000040002f8
:04af300078ffff00a7
:020000040000fa
:020000040002f8
:04af3800bbffff005c
:020000040000fa
:020000040002f8
:04af40009fffff0070
:020000040000fa
:020000040002f8
:04af5000dfffff0020
:020000040000fa
:020000040002f8
:04af5800ffffff00f8
:020000040000fa
:020000040002f8
:04af6000ffffff00f0
:020000040000fa
:020000040002f8
:04aff800ffffff0058
:00000001FF
