:020000040000fa
:080000000002040000000000f2
:020000040000fa
:04000800b803000039
:020000040000fa
:04000c00b803000035
:020000040000fa
:04001000b803000031
:020000040000fa
:04001400b80300002d
:020000040000fa
:04001800b803000029
:020000040000fa
:04001c00b803000025
:020000040000fa
:04002000b803000021
:020000040000fa
:04002400b80300001d
:020000040000fa
:04002800b803000019
:020000040000fa
:04002c00b803000015
:020000040000fa
:04003000b803000011
:020000040000fa
:040034001a030000ab
:020000040000fa
:04003800b803000009
:020000040000fa
:04003c00b803000005
:020000040000fa
:04004000b803000001
:020000040000fa
:04004400b8030000fd
:020000040000fa
:04004800b8030000f9
:020000040000fa
:04004c00b8030000f5
:020000040000fa
:04005000b8030000f1
:020000040000fa
:04005400b8030000ed
:020000040000fa
:04005800b8030000e9
:020000040000fa
:04005c00b8030000e5
:020000040000fa
:04006000b8030000e1
:020000040000fa
:04006400b8030000dd
:020000040000fa
:04006800b8030000d9
:020000040000fa
:04006c00b8030000d5
:020000040000fa
:04007000b8030000d1
:020000040000fa
:04007400b8030000cd
:020000040000fa
:04007800b8030000c9
:020000040000fa
:04007c00b8030000c5
:020000040000fa
:04008000b8030000c1
:020000040000fa
:04008400b8030000bd
:020000040000fa
:04008800b8030000b9
:020000040000fa
:04008c00b8030000b5
:020000040000fa
:04009000b8030000b1
:020000040000fa
:04009400b8030000ad
:020000040000fa
:04009800b8030000a9
:020000040000fa
:04009c00b8030000a5
:020000040000fa
:0400a000b8030000a1
:020000040000fa
:0400a400b80300009d
:020000040000fa
:0400a800b803000099
:020000040000fa
:0400ac00b803000095
:020000040000fa
:0400b000b803000091
:020000040000fa
:0400b400b80300008d
:020000040000fa
:0400b800b803000089
:020000040000fa
:0400bc00b803000085
:020000040000fa
:0400c000b803000081
:020000040000fa
:0400c400b80300007d
:020000040000fa
:0400c800b803000079
:020000040000fa
:0400cc00b803000075
:020000040000fa
:0400d000b803000071
:020000040000fa
:0400d400b80300006d
:020000040000fa
:0400d800b803000069
:020000040000fa
:0400dc00b803000065
:020000040000fa
:0400e000b803000061
:020000040000fa
:0400e400b80300005d
:020000040000fa
:0400e800b803000059
:020000040000fa
:0400ec00b803000055
:020000040000fa
:0400f000b803000051
:020000040000fa
:0400f400b80300004d
:020000040000fa
:0400f800b803000049
:020000040000fa
:0400fc00b803000045
:020000040000fa
:04010000b803000040
:020000040000fa
:04010400b80300003c
:020000040000fa
:04010800b803000038
:020000040000fa
:04010c00b803000034
:020000040000fa
:04011000b803000030
:020000040000fa
:04011400b80300002c
:020000040000fa
:04011800b803000028
:020000040000fa
:04011c00b803000024
:020000040000fa
:04012000b803000020
:020000040000fa
:04012400b80300001c
:020000040000fa
:04012800b803000018
:020000040000fa
:04012c00b803000014
:020000040000fa
:04013000b803000010
:020000040000fa
:04013400b80300000c
:020000040000fa
:04013800b803000008
:020000040000fa
:04013c00b803000004
:020000040000fa
:04014000b803000000
:020000040000fa
:04014400b8030000fc
:020000040000fa
:04014800b8030000f8
:020000040000fa
:04014c00b8030000f4
:020000040000fa
:04015000b8030000f0
:020000040000fa
:04015400b8030000ec
:020000040000fa
:04015800b8030000e8
:020000040000fa
:04015c00b8030000e4
:020000040000fa
:04016000b8030000e0
:020000040000fa
:04016400b8030000dc
:020000040000fa
:04016800b8030000d8
:020000040000fa
:04016c00b8030000d4
:020000040000fa
:04017000b8030000d0
:020000040000fa
:04017400b8030000cc
:020000040000fa
:04017800b8030000c8
:020000040000fa
:04017c00b8030000c4
:020000040000fa
:04018000b8030000c0
:020000040000fa
:04018400b8030000bc
:020000040000fa
:04018800b8030000b8
:020000040000fa
:04018c00b8030000b4
:020000040000fa
:04019000b8030000b0
:020000040000fa
:04019400b8030000ac
:020000040000fa
:04019800b8030000a8
:020000040000fa
:04019c00b8030000a4
:020000040000fa
:0401a000b8030000a0
:020000040000fa
:0401a400b80300009c
:020000040000fa
:0401a800b803000098
:020000040000fa
:0401ac00b803000094
:020000040000fa
:0401b000b803000090
:020000040000fa
:0401b400b80300008c
:020000040000fa
:0401b800b803000088
:020000040000fa
:0401bc00b803000084
:020000040000fa
:0401c000b803000080
:020000040000fa
:0401c400b80300007c
:020000040000fa
:0401c800b803000078
:020000040000fa
:0401cc00b803000074
:020000040000fa
:0401d000b803000070
:020000040000fa
:0401d400b80300006c
:020000040000fa
:0401d800b803000068
:020000040000fa
:0401dc00b803000064
:020000040000fa
:0401e000b803000060
:020000040000fa
:0401e400b80300005c
:020000040000fa
:0401e800b803000058
:020000040000fa
:0401ec00b803000054
:020000040000fa
:0401f000b803000050
:020000040000fa
:0401f400b80300004c
:020000040000fa
:0401f800b803000048
:020000040000fa
:0401fc00b803000044
:020000040000fa
:04020000b80300003f
:020000040000fa
:04020400b80300003b
:020000040000fa
:04020800b803000037
:020000040000fa
:04020c00b803000033
:020000040000fa
:04021000b80300002f
:020000040000fa
:04021400b80300002b
:020000040000fa
:04021800b803000027
:020000040000fa
:04021c00b803000023
:020000040000fa
:04022000b80300001f
:020000040000fa
:04022400b80300001b
:020000040000fa
:04022800b803000017
:020000040000fa
:04022c00b803000013
:020000040000fa
:04023000b80300000f
:020000040000fa
:04023400b80300000b
:020000040000fa
:04023800b803000007
:020000040000fa
:04023c00b803000003
:020000040000fa
:04024000b8030000ff
:020000040000fa
:04024400b8030000fb
:020000040000fa
:04024800b8030000f7
:020000040000fa
:04024c00b8030000f3
:020000040000fa
:04025000b8030000ef
:020000040000fa
:04025400b8030000eb
:020000040000fa
:04025800b8030000e7
:020000040000fa
:04025c00b8030000e3
:020000040000fa
:04026000b8030000df
:020000040000fa
:04026400b8030000db
:020000040000fa
:04026800b8030000d7
:020000040000fa
:04026c00b8030000d3
:020000040000fa
:04027000b8030000cf
:020000040000fa
:04027400380300004b
:020000040000fa
:040278005803000027
:020000040000fa
:04027c007803000003
:020000040000fa
:0402800098030000df
:020000040000fa
:04028400b8030000bb
:020000040000fa
:04028800b8030000b7
:020000040000fa
:04028c00b8030000b3
:020000040000fa
:04029000b8030000af
:020000040000fa
:04029400b8030000ab
:020000040000fa
:04029800b8030000a7
:020000040000fa
:04029c00b8030000a3
:020000040000fa
:0402a000b80300009f
:020000040000fa
:0402a400b80300009b
:020000040000fa
:0402a800b803000097
:020000040000fa
:0402ac00b803000093
:020000040000fa
:0402b000b80300008f
:020000040000fa
:0402b400b80300008b
:020000040000fa
:0402b800b803000087
:020000040000fa
:0402bc00b803000083
:020000040000fa
:0402c000b80300007f
:020000040000fa
:0402c400b80300007b
:020000040000fa
:0402c800b803000077
:020000040000fa
:0402cc00b803000073
:020000040000fa
:0402d000b80300006f
:020000040000fa
:0402d400b80300006b
:020000040000fa
:0402d800b803000067
:020000040000fa
:0402dc00b803000063
:020000040000fa
:0402e000b80300005f
:020000040000fa
:0402e400b80300005b
:020000040000fa
:0402e800b803000057
:020000040000fa
:0402ec00b803000053
:020000040000fa
:0402f000b80300004f
:020000040000fa
:0402f400b80300004b
:020000040000fa
:0402f800b803000047
:020000040000fa
:0402fc00b803000043
:020000040000fa
:04030000b80300003e
:020000040000fa
:04030400b80300003a
:020000040000fa
:04030800b803000036
:020000040000fa
:04030c00b803000032
:020000040000fa
:04031000b80300002e
:020000040000fa
:04031400b80300002a
:020000040000fa
:04031800b803000026
:020000040000fa
:04031c00b803000022
:020000040000fa
:04032000b80300001e
:020000040000fa
:100400000f0a21000eff22000e01880000000000ec
:10041000000020000000e000020032000001200087
:100420002002880014000700d30007000000e0004d
:1004300003003a0060902100010020000200370014
:100440000000200001002000810f70000100320038
:100450000f000700000020000000e0000200320052
:1004600000000200000000006a1902000000000005
:100470000040da000000fe00600620000000e000fe
:1004800002003200002020009001880000000600d9
:10049000a1028800800478000000eb001f003700f4
:1004a000e284440054a0b4009905ba00e2844400f8
:1004b00054a0b4009906ba00e284440054a0b400e9
:1004c0000006eb00476fde00fd07b200ae018800ba
:1004d000636ce10003003a000ad801000000eb0061
:1004e0000e003700606ce10008003a00004deb00a0
:1004f0000a05e800020039003420ec000af0a000f0
:100500008b05e900f9ff3e00040037006168e10057
:10051000010032000086eb000b00070019c7ba008b
:100520000e04e0001905ba0003003a000a00e000da
:10053000dbff3a0000000600fe07b200ae028800b2
:100540008a047800f5ff37000cd0a300e20f4d00bd
:100550001c003b0089027800354dba000a05e8000e
:10056000020039003420ec000af0a0008b05e900fd
:100570000f003200254dba000a05e80002003900dc
:100580003420ec000af0a0008b05e90008003200de
:100590000c00e0000600320015cdba000a05e800a4
:1005a000020039003420ec000af0a0008b05e900bd
:1005b0008984e80054a0b4000b00e000e2ff3a0098
:1005c000000006009902ba00055d78008b05e9007d
:1005d000f7ff3200c82ade00055d78008b05e900d0
:1005e000f3ff32000c00e000f1ff320019ddba0029
:1005f000eeff37006c170400000000003417040001
:10060000000000002018040000000000e8170400ab
:10061000000000009a180400000000009018040078
:10062000000000007c1604000000000072160400a8
:10063000000000003600f800809fbe00829fbe00d0
:10064000849fbe00869fbe000000fa000068a900db
:100650000a0507000080fa004f03be004f02be00eb
:100660004f01be004f00be003600f90000400600fa
:100670003600f800809fbe00829fbe00849fbe00af
:10068000869fbe000000fa001268a90090808000da
:100690003b0907000080fa004f03be004f02be0076
:1006a0004f01be004f00be003600f90000400600ba
:1006b0003600f800809fbe00829fbe00849fbe006f
:1006c000869fbe000000fa001288a900a08080006a
:1006d0002b0907000080fa004f03be004f02be0046
:1006e0004f01be004f00be003600f900004006007a
:1006f0003600f800809fbe00829fbe00849fbe002f
:10070000869fbe000000fa0012a8a900b0808000f9
:100710001b0907000080fa004f03be004f02be0015
:100720004f01be004f00be003600f9000040060039
:100730003600f800809fbe00829fbe00849fbe00ee
:10074000869fbe000000fa0012c8a90080808000c9
:100750000b0907000080fa004f03be004f02be00e5
:100760004f01be004f00be003600f90000400600f9
:100770000040da000000fe00000005001400200028
:1007800089033700f4ff2f00870337000001be0004
:100790001b0007000470a70003f0a10003f8a300ea
:1007a00013003a006509b10010003200090035005d
:1007b0006928e10002003500010028000000050062
:1007c00000004000818048008502e900fcff3a00fb
:1007d00000000600f88f4200050035008100d100be
:1007e0000080d3008502e800fcff3a00000006000c
:1007f0008000eb00000005006011b80085033700a1
:10080000c70ade00f107b200f50fb200080032009f
:10081000e1cf4200020032000170a0002400050078
:10082000810f70000100320004080500440005003b
:10083000810f700002003a00140005008502e900f3
:100840000000400081c04800fcff3b000170a00098
:100850002400050007f82700078361000638e1003f
:1008600004003a00f70720008783610087037100c6
:1008700001003a0003f0a200889fbe008a9fbe00dc
:100880008c9fbe00470ade000480a100c71ade006c
:100890000580a100070028000785600087856100aa
:1008a000f70f20000720e1009e0032000728e1003a
:1008b0009c003200010678000400e000b400320021
:1008c000f7072000878060000170a0000500e000ad
:1008d000c0003200f7072000878161000370a0008c
:1008e000050652000f003a000b50e1000b003200e9
:1008f0000308e10002003a000200e1007e0032003d
:100900000204500083845800040031000001fd00ff
:100910008101fd008402fd008a05fd006044b800ed
:10092000210037000520e10005003d000001fd0029
:100930008101fd008402fd008a05fd0005065200cc
:100940007a60e100050035000170a1004722dd005a
:10095000848070008a807000630037006044b800b3
:10096000ef02660007ff2f00070666000500e000a3
:1009700006003400f08312008714dd000511de004c
:10098000071bdd00060171008519de007060e100c3
:10099000050035000904780082047800030178001e
:1009a0008001eb00700656000b50e10003003a0096
:1009b00002004000838048000400370060041400f7
:1009c000e0841c0002005800838058000188a300c6
:1009d000060032008100d1000080d3008984d3005a
:1009e0000884d3000402e800270037000178a30040
:1009f00025003a000100e000030032008186cf00ac
:100a0000698656000a0037008c0020000000e000d4
:100a100004003a0009007800880478000004eb0024
:100a2000700252008086cf000d0646000c06e900d9
:100a30007060e10006003500800078000900780051
:100a4000880478000004eb00700656007002520023
:100a50000c00e0000c0034008c08dd00f0031600f0
:100a60000703de00868070000c00dd00074bde000f
:100a7000060070008c4cdd000743de0086847400a5
:100a80000c44dd000c0252006120e1002000350022
:100a9000610160000700280087816400f7ff2700dc
:100aa00087836400070374000300e000060032003f
:100ab00082037300040032000000e800e080480078
:100ac0000188a3000e003a00f70f20000720e10084
:100ad0004a003d000170a1004722dd008100720044
:100ae0008a8070000000be004f06be004f05be00a9
:100af0004f04be00000006006000b800faff370097
:100b00008100d1000080d3000402e800eeff37002e
:100b10000401780089017400a10107008a80700037
:100b2000f1ff3700f7010700070278000001fd0020
:100b30008101fd00f3010700870278008503720040
:100b40000778a300040032000001fd008101fd00d0
:100b500006020700e4ff3700850362000768a30070
:100b6000080032000b50e10003003200f0ff2f00bc
:100b7000f1ff2700dcff37000001fd008101fd00cf
:100b8000d9ff37000468a300d7ff3200faff37000f
:100b9000f8ff2700888360000b003a000000e000a7
:100ba00009003a008303640082837300020032006c
:100bb0000200be00ccff37000b50e100ceff3a0030
:100bc0000200be00c8ff370014002000810064004e
:100bd0003eff3700f8ff27008883610004003a00d9
:100be0000200e00002003a008c007800beff3700ef
:100bf000150020008301640039ff370001f8270049
:100c00000000200081007500b7ff3700889fbe00fc
:100c10008a9fbe008c9fbe001b0020000202be0007
:100c20000586680006002800060666004709de0003
:100c3000f20fb200820032000243e800800032006e
:100c4000c729de00f30fb2007d0032000343e80045
:100c50007b003200f107b2000170a000f507b2007e
:100c60000570a000c708dd004903de008680700023
:100c70004700dd00c72add004923de0086827200be
:100c80004722dd000305510004035000858358000e
:100c90000300310000004000818048000a05e9009f
:100ca0008c1f78008a9fbe00040050008580580089
:100cb0000402420085824a00000040008180480012
:100cc0000005eb000004be006033b8000406be005f
:100cd0000d48e10056003100110009004dccd8004c
:100ce0000c01b8000d02b8008481410060824a0006
:100cf0008283530003045c0084845c0060055d0013
:100d00000a00e00025003a00800578000d40e1006f
:100d100049003100880078000700780011000900c0
:100d20004d88d8000c01b8000d02b8008481410044
:100d300060824a006003110083835b0004045c004e
:100d4000e0845c000900e00021003a004f01be0091
:100d50000300e0002b003200e3016000070673008f
:100d60008c81710001003200640070004200de00de
:100d70004e5edd000c007000c258de0001e0a000f5
:100d800083010700cf017800818071004f06be000b
:100d90004f05be004f04be00000006008c834300d8
:100da0000d044c00e0844c0060054d000000e9009b
:100db0000a00e000d4ff32008c8343000d044c0095
:100dc000e0844c0060054d000000e900ceff3700d4
:100dd0000c0343008d834b0060044c00e0844c0006
:100de0000000e9000900e000d8ff32000c034300d6
:100df0008d834b0060044c00e0844c000000e9004f
:100e0000d2ff37004200de004e5edd000c007000b5
:100e1000c258de0001e0a000cf0178000300e0002e
:100e2000daff320060001000e0801800d7ff3700c2
:100e3000f0ff2f00aaff3700f0ff2f00b9ff3700a7
:100e40000404be002f010700870678000004fd009f
:100e50008104fd002b010700078366000678a300cc
:100e6000030032000960a7000800be002c00370014
:100e70000d78a300020032000800be0028003700f1
:100e80000778a30026003a0001f0a10009f0a100b4
:100e90000668a30003003200f1ff2700f0ff2f00d7
:100ea000baff37000d68a300030032000800be003f
:100eb0008c807000b5ff37000768a30007003a0078
:100ec0000648a30003003200f1ff2700f0ff2f00c7
:100ed000aeff37000d48a300030032006000b800e9
:100ee0008c807000a9ff37000748a300040032007f
:100ef00001f82700000020008c807000a3ff37005d
:100f0000760107000004fd008104fd000205780061
:100f1000720107000802be008a01780059ff3700fd
:100f20000160a00012022000e280880097ff3700d5
:100f30000100e000120032000500e0001000320065
:100f4000889fbe008a9fbe008c9fbe000006eb00fb
:100f500001f8a3000300320060001000e0801800d8
:100f60000cf0a00005f8a30003003200600212009c
:100f7000e0821a000cf0a2008005eb0041ff370070
:100f80006000b80002000500038368000700280025
:100f900007036300470ade000480a100c71ade00d1
:100fa0000580a100f70f20000720e1004200320079
:100fb0000728e10040003200889fbe008a9fbe00e3
:100fc0008c1f7800f107b200f307b2000400e000c4
:100fd000640032000170a0000500e00068003200eb
:100fe0000370a00085054200eb07b1000204b800c1
:100ff0000302b8008484440060854a00020ab800f5
:10100000848444000a854a00030ab80004054500a8
:10101000040033000804d0008984d2000a85d2007d
:101020008b05e9006158e1003d0035000210200009
:10103000090161000308200089816100f707200091
:101040008783640008867300c84cde00c853dd0047
:10105000878474004855de000300e000060032007b
:1010600082037600040032008904e80060054d0028
:101070000a88a3000c003a00f70f20000758e1008f
:1010800044003d000a70a100c75ddd000a857500bf
:101090008a007300090078004f0678004f05be00f3
:1010a0004f04be00000006000a05d1008984d30069
:1010b0008b05e800f0ff3700881f780006047800f1
:1010c00090000700070278000001fd008101fd008b
:1010d0008c00070087027800850372000778a30060
:1010e000050032000001fd008101fd009f000700a6
:1010f0004f04780000000600850372000748a30033
:1011000003003200f0ff2f00f1ff2700f8ff370047
:101110000000200001f8270088807000f4ff3700ed
:10112000880178004848dd00808171004848de0071
:10113000c850dd0001007000c850de0006047800d1
:101140000b0178001600070088807000d2ff37007e
:101150000500e00005003200170020003a000700fb
:101160009dff370081037000f9ff3a008600780088
:101170004f0678004f05be004f04be00000005007a
:1011800083037100f9ff3200270020002e000700c2
:1011900094ff370001f8270086807000f4ff3700c5
:1011a0000100e00026003200610111007810e1002a
:1011b00023003c006022b8007010e10004003500fc
:1011c00080027800010078008000eb00700151007f
:1011d0000200e0000900340070031100062add005f
:1011e000822ade008603dd00878272000200de00b4
:1011f000860bdd00070070008208de00848171002c
:10120000f4ff27000482620084817100040028003a
:10121000848262006102600005f0a6000000060002
:1012200004827100070032000000e800e0804800fe
:10123000000006000002be006000b800efff3700ab
:101240006000b80000000600889fbe000004eb00ac
:101250006138e10016003a000100e00008003a00a1
:10126000c800de004800dd00880020000100e0002a
:1012700003003a00c800de004800dd0068044400b6
:101280008184cf00e9845400060034008908dd0021
:10129000f08314008703de00878070000900dd0002
:1012a00009044400610214004f04be00000006005f
:1012b0000300e00008003a00c811de004811dd001c
:1012c000880020000300e00003003a00c811de009f
:1012d0004811dd00680444008384cf00e984540091
:1012e000060034008919dd00f08314008713de0046
:1012f000878171000911dd0009044400e102140036
:10130000e9ff37002700200001f0a70017002000a8
:10131000470bde00f60fb200040032000643e8007f
:101320000a0032004702b300000006000103780003
:10133000f607b2000603700002003a000703b3008c
:10134000000006008702b3000000060001037800d9
:10135000f607b20006037000020032000770a0001a
:10136000000006000760a000000006000478a3004b
:10137000040032000578a300030032000168a300d6
:1013800001003a000200be000160a000000006005b
:1013900081017000270032008002eb0001f8a300f9
:1013a0000300320060001000e080180015002000eb
:1013b000f40720000202420020003400f70320005e
:1013c0008703600006042000000363000208200079
:1013d000000161004700de00c909dd0000807100e6
:1013e000c708de000600e000080032008703710035
:1013f000060032001000b0000180b0000188a30098
:1014000002003200c108de000402e800f107b20069
:10141000f30f20000320e10003003d004722dd0020
:10142000810072002900370001f827000000eb005e
:10143000260037006000b8000000060068021200b5
:101440007f20e100020034006000b8001f00370078
:101450006011b8007020e1000400350080017800c0
:10146000010078008000eb00700252000400e000f0
:1014700009003400f00312000719dd008419de00b2
:101480000703dd00868171000400de00070bdd002c
:10149000060070008408de00f7ff270083836300e6
:1014a0008703710006002800030363000700320071
:1014b0000700e00003003a00610160000281730050
:1014c000020032001000b0000180b0000500a6004c
:1014d0000000060001f0a000000006004f0ade0038
:1014e0004709de00f107b200f20fb2000b00320034
:1014f000f207b1000170a000c708dd00c901de00dd
:10150000838070004700dd000400a6000000060094
:1015100060001000e080180000000600810f7000dd
:1015200001003a00000006008182cf000500e000c3
:1015300010003e008082cf00ee8242007028e10061
:101540000400390007003e00800078000000eb0036
:101550000e003700708312008600de000500dd00fb
:101560000a003700708352008600dd000000eb00a7
:1015700006003700e28252008508dd007083120009
:101580000603de00868070000500dd007507b000f0
:101590000501ea000400a60000000600600010003b
:1015a000e080180000000600889fbe008a9fbe00f1
:1015b000841f78006c0007004f0078001100330092
:1015c000f0ff2f00838f6c0006003b0004056500d0
:1015d0000a00a7000800370009f0a600100020004c
:1015e00008003700820f5400838f5c00030039002d
:1015f0001000200001003e000000200009f0a700bc
:101600000000ea004f05be004f04be000000e000ed
:1016100000000600889fbe008a9fbe000082700006
:101620000402710004827100260032000004be0032
:101630000200be006011b8006b0920009502200076
:101640000182cf000a0039000541b1000082cf00bd
:10165000070039000541b1000982cf0004003900bc
:101660000541b1000882cf00010039000541b100f9
:1016700005425200120032000a003b0082817100d4
:10168000610164008100d1000080d3008984d3000f
:101690000884d3008b05e8000442e800f7ff3a0015
:1016a000070037000804440089844c00000048000b
:1016b000818048008b05e9000442e900f9ff3a0007
:1016c000030007004f05be004f04be0000000600e7
:1016d00081002000618055000b003d000b002000c0
:1016e00061fe2f000100e1001d00340082817100c5
:1016f000610164008904d1000884d3000000e8007f
:10170000faff3a00710020006100640003007000dd
:10171000020060000900320061044400e0844c00d3
:101720000988a500050032008b05e8006808e10083
:1017300002003a008904d1000884d300f20f20008f
:101740000258e10005003d00c75ddd00f907b20069
:101750008980750008007800000006000bf827005b
:101760008b007800000005000004be0024fc070088
:101770000003be000405be000200be0020fc0700fe
:10178000844f750000000600889fbe008a9fbe003f
:101790008c9fbe000004be000400200005f8270056
:1017a0008583600004037800840f5300858f5b00fd
:1017b00007003a000801be000800be00f2fd070065
:1017c0000001be000800be002bfc0700100037001f
:1017d000e00f5000e08f58000f003c0081017800be
:1017e00003f0a10000017800e00f5100e08f5900e4
:1017f0006a00320010022000f08488000801be0058
:101800000800be0013fc07000001be00fffc07003b
:101810000004be0061003700478cde00cf8cde0084
:10182000e00f5400e08f5c000f003a006044b80005
:10183000040037000000400081804800610444003b
:10184000e0844c0004002000050820008181620033
:1018500004017800e00f5100e08f5900f5ff3200dd
:1018600061041400e0841c00f807b1000980b10095
:1018700081017800f307b200000178000200be0089
:101880000170a0000808a300020032000000400020
:10189000818048008984d1000884d3000000400082
:1018a00081804800940120000200200003102000e5
:1018b0006055b8006066b8000c0341008d83490094
:1018c000800f5300818f5b0006003c00060641003c
:1018d0008786490006005000878058000a054100ad
:1018e0008b85490000004000818048008301d100c1
:1018f0000281d3000402e900efff3a00e00f50003c
:10190000e08f58001b0032000226240023da20005a
:101910000000200001f82300cefb07000200200099
:1019200003f8230097fb07000000e00011003500da
:101930000226240023da20000000200001f8230002
:10194000cdfb07000200200003f823008dfb0700f9
:101950000000e0000300340062054500e0854d0012
:10196000040037006000b800610065000005450014
:1019700081854d00c744dd000800200000002000e4
:1019800001f0230008044000898448008b85d100c1
:101990000a85d3000804450089844d000800be0074
:1019a0004f06be004f05be004f04be0000000600fb
:020000040000fa
:1019b00062730000705f00006473000070690000d3
:1019c0006300000003000000140000000500000098
:1019d000030000000a0000000300000003000000f4
:1019e0002800000005000000030000001e000000a9
:1019f0000700000000000000040000003c000000a0
:101a0000010000003c000000050000005000000044
:101a100002000000500000006275000074740000b5
:101a20006f6e00003262000000000000627500006e
:101a3000747400006f6e000032610000000000004e
:101a400073730000745f0000706f00007274000018
:101a500000000000626c0000696e00006b790000fd
:101a600031000000626c0000696e00006b790000bc
:0c1a7000330000007373000074000000dd
:020000040000fa
:101a7c000c00fa00889fbe008a9fbe008c9fbe009f
:101a8c00ff00070080808000a1cf2800fd02070026
:101a9c0090808000a1cf2800fa02070000e220000d
:101aac0010009000680060000080ea008000eb00ed
:101abc00008fbe0000002100100178009001900002
:101acc0022079800330798000000210010027800cc
:101adc009002900000002100b000900020009000c7
:101aec001e0178009e0190008003780001037800ad
:101afc00020078008300780000806300810063009e
:101b0c0051079800400798004e009000de009000ae
:101b1c000000720081807200020021000089be006a
:101b2c0000002100100178009001900000002100bd
:101b3c00b0009000200090003e027000ae82700059
:101b4c000400be00020278000301780080017800d6
:101b5c00810078000300620081006100810678003a
:101b6c00000678000c00be00020021000089be00b7
:101b7c00000021001e0178009e01900022009800b8
:101b8c0033009800000021009000900010007800b5
:101b9c002e019000be019000000069008180690058
:101bac0020079800310798002e009000be0090008e
:101bbc0000007800680060008005eb0000057800ec
:101bcc000a00be00e00f5000e08f580018003200f1
:101bdc0000002100900090001000780000007800b8
:101bec00680060008004eb00000478000800be0070
:101bfc00e00f5000e08f580007003200b0808000ea
:101c0c00c1cf28009f020700b080800001d02800bf
:101c1c009c02070006003700b080800041d02800ed
:101c2c0098020700b080800081d028009502070040
:101c3c009a0007004f06be004f05be004f04be00c1
:101c4c000080fa00000006000800fa002007980047
:101c5c0031079800c3e8a90018d0bf000040e80085
:101c6c0018f0b700d800070000242400f100200071
:101c7c00008fbe00050037001e0078009e0090000b
:101c8c0061005000e0805800008fbe001e007800fc
:101c9c009e009000e00f5000e08f5800f6ff3a00d5
:101cac00d300070000242400f1002000008fbe00a8
:101cbc00050037001e0078009e0090006100500067
:101ccc00e0805800008fbe001e0078009e0090003f
:101cdc00e00f5000e08f5800f6ff3a00e1ff3700ac
:101cec000400fa00000f7800110798009e00900085
:101cfc001e007800d4ff07000080fa0000000600e8
:101d0c000000fa009080800031c9b300dc030700aa
:101d1c00a080800041c9b300d9030700b0808000c7
:101d2c0051c9b300d60307008080800061c9b3009d
:101d3c00d303070012c0b3000101200000e0200013
:101d4c000501070012c0b3008100200000e0200054
:101d5c000101070012c0b3000180200000e1200047
:101d6c00fd00070012c0b3000100210000e12000bb
:101d7c00f900070012c0b3000100220000e12000ae
:101d8c00f500070012c0b3000100240000e12000a0
:101d9c00f100070022c0b3008100200000e2200007
:101dac00ed0007000080fa00000006000c00fa00ad
:101dbc00881f780040079800510798004e0090004b
:101dcc00de0090006dfe0700008fbe001e01780043
:101ddc009e0190004e009000de00900088fb0700f2
:101dec00200798003107980072712b00138d230087
:101dfc001e0078009e00900093fa070018c0b300f4
:101e0c002e019000be01900059fa07000000e0007e
:101e1c00010034000044eb00084078000004a200ec
:101e2c000004e00010003a0072712b00138d2300a7
:101e3c001e0078009e0090008cfa070018c0b300ba
:101e4c002e019000be0190004bfa07000000e0004c
:101e5c0001003d000044eb00084078000004a200a3
:101e6c000004e00003003200810c200080cd28002b
:101e7c0075ff07004f0478000080fa000000060090
:101e8c000000fa0012c0b3000101200000e02000a5
:101e9c008c0007000080fa00000006000000fa0029
:101eac000041eb000101200000e02000850007004c
:101ebc000080fa00000006000000fa0012c0b30017
:101ecc008100200000e020007e00070090412000ef
:101edc00e1f92300b5ff07000080fa0000000600be
:101eec000000fa000041eb008100200000e020001f
:101efc00740007000080fa00000006000000fa00e1
:101f0c0012c0b3000180200000e120006d0007002a
:101f1c00703d2a0001eb2300a4ff07000080fa00ab
:101f2c00000006000000fa000041eb0001802000d8
:101f3c0000e12000630007000080fa0000000600aa
:101f4c000000fa0012c0b3000100210000e12000e3
:101f5c005c000700508d270091ee230093ff0700d3
:101f6c000080fa00000006000000fa000041eb00bf
:101f7c000100210000e12000520007000080fa005f
:101f8c00000006000000fa0012c0b300010022009d
:101f9c0000e120004b0007005037290081fc230092
:101fac0082ff07000080fa00000006000000fa0023
:101fbc000041eb000100220000e12000410007007d
:101fcc000080fa00000006000000fa0012c0b30006
:101fdc000100240000e120003a000700904120009d
:101fec00e1f9230071ff07000080fa0000000600f1
:101ffc000000fa000041eb000100240000e1200089
:10200c00300007000080fa00000006000200fa0011
:10201c00004f78001e407800e14f5000030036005e
:10202c00411f200080cd280007ff07001e80fb0009
:10203c00e600b90080007800e0ce28000080400067
:10204c000080fa00000006000200fa00004f780041
:10205c001e407800e14f500003003600812520001f
:10206c0080cd2800f8fe07001e80fb00e600b900ba
:10207c008000780020ce2800008040000080fa000c
:10208c00000006000200fa00f500070040012000e5
:10209c00000f78001e007800c000070071c0b3006c
:1020ac0030002000fa0007000080fa000000060053
:1020bc000000fa00c4ff0700cdff07000080fa0003
:1020cc00000006000600fa00000f780011079800c7
:1020dc00424798004e4090000004e0000700320098
:1020ec001e007800900090001e009000810070008f
:1020fc001e00780011009800070037001e007800c1
:10210c00900090001e0090000080ea00808060002b
:10211c001e007800110098000080fa0000000600f4
:10212c000400fa00000f7800110798001e007800d8
:10213c00900090001e0090000080600000f0a7004e
:10214c000000ea000000ea004f00de0000407800ca
:10215c000080fa00000006000600fa00000f78006c
:10216c0011079800424798004e409000e54f5000f0
:10217c0022003a001e007800900078001e009000ab
:10218c00810070001e007800010878001e007800a5
:10219c00c00090001e0090000080ea00808060006b
:1021ac001e007800410098001e007800d0009000be
:1021bc001e0090000080ea00808060001e00780005
:1021cc00510098001e007800e00090001e00900066
:1021dc000080ea00808060001e007800610098009a
:1021ec001e007800f00090001e009000810070002e
:1021fc001e00780071009800660037004e40900079
:10220c00e44f50000e003a001e007800b000900021
:10221c001e009000810070001e00780031009800b4
:10222c001e007800f00090001e0090000080ea0074
:10223c00808060001e007800710098005500370007
:10224c001e007800b00090001e0090000080ea0094
:10225c00808060001e007800310098001e0078001d
:10226c00f00090001e0090000080ea00808060006a
:10227c001e007800710098004e409000e14f500015
:10228c001d003a001e007800c00090001e00900057
:10229c000080ea00808060001e00780041009800f9
:1022ac001e007800d00090001e0090000080ea0014
:1022bc00808060001e007800510098001e0078009d
:1022cc00e00090001e0090000080ea00808060001a
:1022dc001e007800610098001e00780090007800c5
:1022ec001e0090000080ea00808060001e007800d4
:1022fc0001087800270037001e0078009000780055
:10230c001e009000810070001e007800010878000b
:10231c004e409000e24f50000e003a001e00780034
:10232c00e00090001e0090000080ea0080806000b9
:10233c001e007800610098001e007800d00090000c
:10234c001e009000810070001e0078005100980063
:10235c00100037004e409000e34f50000d003a0043
:10236c001e007800d00090001e0090000080ea0053
:10237c00808060001e007800510098001e007800dc
:10238c00e00090001e009000810070001e0078009c
:10239c00610098000080fa00000006000800fa00b6
:1023ac00300798003e0090008000eb000ff907000a
:1023bc000001be000000200001f8230010fa070005
:1023cc00008fbe0002002000a34724001e007800ee
:1023dc009e009000e9fa0700008fbe00020020006a
:1023ec00a34724001e0078009e009000e3fa07002b
:1023fc00008fbe0005e1a9000421a90004c1a900b9
:10240c0021088000f0fc2f00008060000040a0003c
:10241c00200888000021ef00a2702d00b30e2400cc
:10242c001e0078009e009000d4fa070002002000e5
:10243c0003182400f2f90700d1f807000000780017
:10244c00200798002e009000100888000068a90052
:10245c002068a80005e1a8000080fa000000060032
:10246c000000fa00213a8000f0ff28000080600094
:10247c0000d0a000203a88000080fa00000006007e
:10248c000000fa000040da000080fa0000000600ac
:10249c000400fa00000f7800214798001e00780015
:1024ac004200de0080004000010178000184200021
:1024bc0081004100000040000001780000842000f1
:1024cc0000004100100178009e01780063806100db
:1024dc004200dd00730020000018dd000080ea00df
:1024ec0000006100800878001e0078004200de00c9
:1024fc00800040000101780001842000810041002f
:10250c000000400000017800008420000000410021
:10251c00100178002e4090008081fb001e02780094
:10252c00630062004200dd000018dd000200700054
:10253c00800878000080fa00000006000200fa0013
:10254c00000f78001e0078004400de008000400080
:10255c000101780001822000810041000000400050
:10256c00000178000082200000004100100178007a
:10257c001e0078006f006000130020000018dd00c2
:10258c0002007000800878000080fa00000006004d
:10259c000000fa0043010700bafe0700c4fe070062
:1025ac00feff37000600fa00000f780011079800b4
:1025bc00220798001e0078009e0090000108780009
:1025cc001e007800ae009000110098000080fa0008
:1025dc00000006000a00fa00000f7800214798005e
:1025ec002207980063479800440798002e409000fb
:1025fc000004e000060032002e0090000000e00015
:10260c00030032006e4090000004e00003003a002a
:10261c00810c2000a0d328008bfd07001e00780041
:10262c00ae009000210098006e4090008040e900c0
:10263c001e007800614098001e0078008040eb007e
:10264c00714098001e0078008040eb000148980013
:10265c001e0078008040eb0011489800ae409000be
:10266c001e007800120107001e007800100178008f
:10267c00ce0090001e007800020001000080fa00dd
:10268c00000006000400fa00000f78001107980003
:10269c001e007800904890001e007800604090006a
:1026ac0080cf500003003600c1122000a0d32800b8
:1026bc0065fd0700c3e8a90018d0bf000040e80082
:1026cc0018f0b7001e007800a00090001e007800e3
:1026dc00704090000080fb00000040000080400033
:1026ec009e009000010878001e0078007040900059
:1026fc000004e00005003a001e007800e040900065
:10270c001e00780071409800050037001e0078000c
:10271c00704090008040e9001e00780071409800e5
:10272c001e007800104890008040e8001e007800e1
:10273c00114898001e007800500090009e00780010
:10274c00d1009000110178009e007800e10090000b
:10275c00828070000108780018d0bf000040e900aa
:10276c0018f0b70018d0bf000004e00001003a00d8
:10277c00c3e8a8000080fa00000006000600fa007a
:10278c00000f780011079800220798001e007800af
:10279c009e009000010878001e007800ae009000aa
:1027ac00210098001e0078008000eb00310098009a
:1027bc001e0078008000eb0041009800d180800062
:1027cc001e007800110098009e007800d1808800cf
:1027dc000080fa00000006000600fa00000f7800e6
:1027ec001107980022079800c3e8a90018d0bf0071
:1027fc000040e80018f0b7001e0078009e00900022
:10280c00310098001e007800ae0090004100980046
:10281c0018d0bf000040e90018f0b70018d0bf0076
:10282c000004e00001003a00c3e8a8000080fa00b0
:10283c00000006000400fa0010079800c3e8a90085
:10284c0018d0bf000040e80018f0b7001e00900040
:10285c003000900000f0a7000000ea000000ea0041
:10286c004f00de00004f78001e0090008000eb004f
:10287c00310098001e0090008000eb004100980091
:10288c0018d0bf000040e90018f0b70018d0bf0006
:10289c000004e00001003a00c3e8a8001e407800e4
:1028ac000080fa00000006000200fa00d1808000cf
:1028bc00010f780033003700c3e8a90018d0bf001f
:1028cc000040e80018f0b7001e00780030009000bf
:1028dc000000e00008003a0018d0bf000040e900fa
:1028ec0018f0b70018d0bf000004e00022003a0036
:1028fc00c3e8a800200037001e00780030009000cc
:10290c00e10f500010003a001e007800c00090004b
:10291c001e0078003100980018d0bf000040e9007c
:10292c0018f0b70018d0bf000004e00001003a0016
:10293c00c3e8a8009e0078001e00780020009000dc
:10294c0050ff07000c0037001e007800300090008c
:10295c008000e9001e0078003100980018d0bf00fc
:10296c000040e90018f0b70018d0bf000004e000e8
:10297c0001003a00c3e8a8001e0078009000900007
:10298c00010f78001e0078000000e000caff3a003a
:10299c000080fa00000006000400fa00000f780026
:1029ac00214798001e0078004200de0080004000a5
:1029bc0001017800018420008100410000004000ea
:1029cc000001780000842000000041001001780014
:1029dc009e017800638061004200dd0073002000de
:1029ec000018dd000080ea0000006100800878001b
:1029fc001e0078004200de008000400001017800db
:102a0c00018420008100410000004000000178009a
:102a1c000084200000004100100178002e4090003e
:102a2c008081fb001e027800630062004200dd0022
:102a3c000018dd0002007000800878000080fa00a9
:102a4c00000006000200fa00000f78001e0078005b
:102a5c004400de008000400001017800018220006b
:102a6c00810041000000400000017800008220003d
:102a7c0000004100100178001e0078006f0060001b
:102a8c00130020000018dd000200700080087800a0
:102a9c000080fa00000006000000fa000080fa0036
:102aac00000006000000fa000080fa00000006009a
:102abc000400fa00000f7800214798002e40900087
:102acc00e74f500003003e002e4090000004e00051
:102adc0003003a00810c200000d228005afc0700a9
:102aec00c3e8a90018d0bf000040e80018f0b700f8
:102afc001e00780060009000ae409000a6ff07001a
:102b0c001e00780060009000ceff070018d0bf00b8
:102b1c000040e90018f0b70018d0bf000004e00036
:102b2c0001003a00c3e8a8001e0078006000900085
:102b3c004400de000000400080007800008020008f
:102b4c00808040001e007800510098001e00780024
:102b5c00600090006f006000110020000008dd0094
:102b6c00800078001e007800610098000080fa0058
:102b7c00000006000400fa00100798001e009000e8
:102b8c00104890000004e00003003a00c11220003d
:102b9c0000d228002cfc07001e009000a000900022
:102bac001e009000004890000080fb0000004000d8
:102bbc0000804000100f78001e009000004890002c
:102bcc000004e00005003a001e009000e040900078
:102bdc001e00900001489800050037001e00900070
:102bec00004890008040e9001e00900001489800c9
:102bfc00c3e8a90018d0bf000040e80018f0b700e7
:102c0c001e009000104890008040e9001e009000cb
:102c1c00114898001e009000104890000004e0003d
:102c2c00090032001e009000500090009e009000a1
:102c3c00d1009000110178009e009000e1009000fe
:102c4c00828070000108780018d0bf000040e900b5
:102c5c0018f0b70018d0bf000004e00001003a00e3
:102c6c00c3e8a8001e009000100190009e007800a0
:102c7c001e009000020001000080fa000000060017
:102c8c000400fa00000f7800214798002e409000b5
:102c9c008080fb001e007800610098000080fa0024
:102cac00000006000000fa000009210002000700e5
:102cbc000080fa00000006000200fa00000f780005
:102ccc00c2672100216721001e00780035fe070035
:102cdc000080fa00000006000400fa00000f7800e3
:102cec00110798000080fa00000006000800fa00a6
:102cfc0020079800310798003e00900010007800e3
:102d0c00e20f500022003200e20f500003003e00a0
:102d1c00e10f50000600320037003700e40f50007e
:102d2c0015003200e50f50002d0032003200370044
:102d3c0083fc070010c0b300b4fc070080007800cf
:102d4c00808080004ffe070087fc07003e0090004b
:102d5c0090009000010f78000300370078fc07000a
:102d6c0081fc07001e0fe9001e0078000000e00047
:102d7c00faff3a002400370071fc0700a0808000a5
:102d8c00be0090003ffe070077fc07001e003700d6
:102d9c006bfc07000040eb009cfc070080007800f7
:102dac008080800037fe07006ffc07003e0090001b
:102dbc0090009000110798000500370060fc070098
:102dcc0069fc07001e0090000000e9001007980045
:102ddc001e0090000000e000f8ff3a000a003700e7
:102dec0057fc0700a0808000be00900025fe070065
:102dfc005dfc070004003700411f200060d1280053
:102e0c0091fb0700000000000080fa0000000600a3
:102e1c000000fa00e0042100020007000080fa0024
:102e2c00000006000200fa00000f7800c2762100b4
:102e3c00417321001e007800dafd07009e00780027
:102e4c001e0178006e004100010178008000eb004b
:102e5c004afe07000080fa00000006000400fa0099
:102e6c00000f7800110798001e0090000000e00091
:102e7c00040032001e00900010007800e30f500098
:102e8c0003003200c1122000a0d228006efb070004
:102e9c001e009000404090000081fb001e0090003e
:102eac00404090008080fb009e0178006e804100c5
:102ebc0049fe07001e009000900090001e00780054
:102ecc00410898000080fa00000006000600fa0095
:102edc0010079800210798002e0090001000780031
:102eec000000e00003003200e30f50000c00320041
:102efc001b0037001e009000c0089000010f7800e6
:102f0c00030037001ffc070028fc07001e0fe90018
:102f1c001e0078000000e000faff3a0014003700b1
:102f2c0018fc07002e009000404090000081fb0030
:102f3c002e009000404090008080fb001e0090000e
:102f4c006e00400024fe07002e00900090009000c0
:102f5c001e0090004108980014fc07000400370084
:102f6c00411f2000a0d2280037fb07000000000002
:102f7c000080fa00000006000000fa008006210024
:102f8c00020007000080fa00000006000200fa00b0
:102f9c00000f780002822100817e21001e00780043
:102fac0080fd07009e0078001e0178006e00410035
:102fbc00010178008000eb00f0fd07000080fa00b2
:102fcc00000006000400fa00000f780011079800ba
:102fdc001e0090000000e000040032001e00900073
:102fec0010007800e30f500003003200c1122000e3
:102ffc0020d3280014fb07001e00900040409000d6
:10300c000081fb001e009000404090008080fb007f
:10301c009e0178006e804100effd07001e009000bd
:10302c00900090001e007800410898000080fa0083
:10303c00000006000600fa0010079800210798000f
:10304c002e009000100078000000e0000300320019
:10305c00e30f50000c0032001b0037001e009000e4
:10306c00c0089000010f78000300370092fb0700a6
:10307c009bfb07001e0fe9001e0078000000e0001b
:10308c00faff3a00140037008bfb07002e0090006b
:10309c00404090000081fb002e00900040409000ca
:1030ac008080fb001e0090006e004000cafd0700ef
:1030bc002e009000900090001e0090004108980097
:1030cc0087fb070004003700411f200020d3280095
:1030dc00ddfa0700000000000080fa000000060086
:1030ec000000fa0020082100020007000080fa000e
:1030fc00000006000200fa00000f7800a2892100ef
:10310c00018921001e00780026fd07000080fa00ce
:10311c00000006000400fa00000f78001107980068
:10312c000080fa00000006000800fa002007980052
:10313c00310798003e00900010007800e40f50001a
:10314c0003003200e50f5000130032002600370058
:10315c006afb070010c0b300bbfb070080007800bf
:10316c009080800047fd07006efb07003e0090003a
:10317c0090009000010f7800030037005ffb070000
:10318c0068fb07001e0fe9001e0078000000e0003d
:10319c00faff3a001800370058fb07000040eb001c
:1031ac00a9fb0700800078009080800035fd0700a7
:1031bc005cfb07003e009000900090001107980007
:1031cc00050037004dfb070056fb07001e00900062
:1031dc000000e900100798001e0090000000e000bd
:1031ec00f8ff3a0004003700411f2000c0d028002f
:1031fc0095fa0700000000000080fa0000000600ad
:020000040000fa
:10320c004e1000001a00000080000000101000009a
:10321c0002000000820000004e1000006810000048
:10322c001a000000800000001210000002000000d4
:10323c008200000068100000821000000e000000e8
:10324c00800000001410000002000000820000004a
:10325c008210000000100000080000008000000038
:10326c00901000000e0000008000000016100000fe
:10327c0002000000820000009010000018100000f6
:10328c0002000000800000001a1000000200000084
:10329c00800000001e1000003000000080000000c4
:1032ac000810000008000000800000001c10000046
:1032bc0002000000800000009e10000002000000d0
:0832cc0080000000000000007a
:020000040000fa
:1032d4000000fa00f2fd07008bfa0700cefe07009b
:1032e4000040eb004bfb07008000780080808000ea
:1032f40001027800a3c0b300e201210011c0b300b1
:10330400b6fc070069fe0700b08080000002eb00f5
:1033140083c0b3002203210021c0b300affc070027
:1033240071ff0700a08080000002eb0063c0b300bf
:103334002204210021c0b300a8fc070010ff0700ed
:103344000040eb0042fb0700800078009080800082
:103354000102780043c0b3008200210031c0b300f1
:103364009efc07008cfc07000080fa0000000600a9
:020000040000fa
:020000040002f8
:04af0000ffffff0050
:020000040000fa
:020000040002f8
:04af2000ff1f00000f
:020000040000fa
:020000040002f8
:04af300078ffff00a7
:020000040000fa
:020000040002f8
:04af3800bbffff005c
:020000040000fa
:020000040002f8
:04af40009fffff0070
:020000040000fa
:020000040002f8
:04af5000dfffff0020
:020000040000fa
:020000040002f8
:04af5800ffffff00f8
:020000040000fa
:020000040002f8
:04af6000ffffff00f0
:020000040000fa
:020000040002f8
:04aff800ffffff0058
:00000001FF
